:020000041000EA
:1000000000B5324B212058609868022188439860DF
:10001000D860186158612E4B002199600221596106
:100020000121F02299502B49196001219960352056
:1000300000F044F80222904214D00621196600F024
:1000400034F8196E01211966002018661A6600F04E
:100050002CF8196E196E196E052000F02FF8012189
:100060000842F9D1002199601B49196000215960AB
:100070001A491B48016001219960EB211966A021F2
:10008000196600F012F800219960164914480160C1
:100090000121996001BC002800D000471248134993
:1000A000086003C880F30888084703B5996A0420EC
:1000B0000142FBD001200142F8D103BD02B5186610
:1000C0001866FFF7F2FF186E186E02BD00000240BE
:1000D000000000180000070000035F00212200005C
:1000E000F4000018222000A00001001008ED00E03C
:1000F00000000000000000000000000074B24E7A12
:1001000000200420F7010010CB010010CD010010E9
:10011000C9010010C9010010C9010010C901001077
:10012000C9010010C9010010C9010010CF01001061
:10013000C9010010C9010010D1010010D301001045
:10014000C1010010C1010010C1010010C101001067
:10015000C1010010C1010010C1010010C101001057
:10016000C1010010C1010010C1010010C101001047
:10017000C1010010C1010010C1010010C101001037
:10018000C1010010C1010010C1010010C101001027
:10019000C1010010C1010010C1010010C101001017
:1001A000C1010010C1010010C1010010C101001007
:1001B000C1010010C1010010C1010010C1010010F7
:1001C000EFF30580103800BE00BE00BE00BE00BECA
:1001D00000BE00BEF2EB88711C6C0010406C001079
:1001E0003802001090A31AE700201E49086006C8D4
:1001F00081F3088810471C480068002801D00020BF
:10020000F3E70DA40ECC002902D000F012F8F9E7B4
:100210001649174A002000E001C19142FCD115495E
:100220008847154988471549884700BEFDE701C939
:1002300001C29A42FBD37047406C0010C0000020FE
:1002400070110020F07C0010000004200000042049
:10025000F07C0010001004200010042000000000BA
:100260007047000008ED00E0000000D07011002091
:100270008C1D0020193F001081020010113F00105A
:10028000F0B5D64600B503F06BFF002000F044F84F
:100290000121002000F068F896211C48090200F0B6
:1002A00069FF0221112000F071F8002500F022FF03
:1002B000174C184B24184D419A461026134FBB6912
:1002C0001E420BD1BB691E42FCD1FF213B68504648
:1002D000194004F015F8BB691E42F3D000F00AFF84
:1002E0008D42ECD801D18442E9D8002000F028F8F2
:1002F00001235840C1B2002000F036F8002500F07C
:10030000F9FE034C24184D41D9E7C0460040034094
:1003100040420F001867001010B501280CD8074B99
:100320008000C35818001C0000F04AF80123D022B6
:10033000A34012065362936110BDC046906800103E
:1003400002000020012A0BD80649920051580122D0
:10035000D0238A401B065B6813405A1E9341D8B2D3
:100360007047C04690680010012809D8064B8000ED
:10037000C25801239340D0221206002901D05361B4
:1003800070479361FCE7C0469068001043468C4676
:100390004021084A08B483009A58C0005140C02246
:1003A0000A4005495A50054BC0186346436008BCD3
:1003B0009846704704C0014004D00140004001400D
:1003C0000123D0228340120693629361074A83007F
:1003D00099584022514080320A400549C0005A5085
:1003E000044BC018052343607047C04604C0014059
:1003F00004D00140004001408023DB051868000F55
:100400007047C0460FB400B5084883B003F0F6FE4D
:10041000049B002B07D005A91800019103F05CFD97
:10042000034803F0EBFE012003F06EFD206700108F
:10043000E067001070B58C461600EFF3108472B6BA
:100440000F490B68002BFCD0BFF35F8F6346DB08BE
:10045000C5180722C05C63461A40012393401A0066
:100460000240034207D118432870BFF35F8F0A6030
:1004700084F3108870BD61463000FFF7C3FFC046AB
:100480002C0100D0F8B5CE4647468C4680B51C00FE
:10049000EFF3108872B61C490B68002BFCD0BFF339
:1004A0005F8FA24221D80723994602E0013294428D
:1004B00018D34946012611408E40D308C718C35CA3
:1004C0001E42F3D1100033433B70BFF35F8F002215
:1004D0000D4B1A6088F3108800280EDBC0BCB946AB
:1004E000B046F8BD01204042EFE7BFF35F8F002325
:1004F0000B6088F31088012040426346002BEDD04A
:100500000898FFF77FFFC0462C0100D0044A1078FE
:10051000431CDBB2172B00D9102313707047C04661
:100520008010002000B5054B83B001000093182215
:100530001F230348FFF7A6FF03B000BD306700107C
:10054000CC1800200021044B044ABFF35F8F02C384
:100550009342FAD17047C046000100D0800100D01C
:10056000084B094A1360094A1360094A1360094A93
:100570001360094A1360094A1360094A1360094A63
:10058000136070478080808000E400E004E400E0B5
:1005900008E400E00CE400E010E400E014E400E013
:1005A00018E400E01CE400E01F2318401E3B8340D9
:1005B000002905D0C021044A4900535013607047F8
:1005C000802201498B50FAE700E100E001228240DD
:1005D000034B1B6813405A1E9341D8B27047C04664
:1005E00000E100E001238340014A13607047C046E8
:1005F00000E200E0054B10309B688000C358044ABD
:1006000000209B1A47229A424041704700ED00E0CB
:100610008410002010B5EFF3108C72B60F4A1368E7
:10062000002BFCD0BFF35F8F0D4B10309B68800018
:100630001B580C4A934201D099420CD1084B9B683D
:100640001950BFF35F8FBFF35F8F0022034B1A6017
:100650008CF3108810BD01F001F8C046240100D0D1
:1006600000ED00E0C1010010F0B5DE4657464E46F1
:100670004546E0B58B4685B0EFF3108872B616009C
:100680005B4A1368002BFCD0B246BFF35F8F002596
:1006900058494D57002D00DAA8E06B00564A0193E7
:1006A0005B199B00D418A77910300F705349800054
:1006B000896884460F58B91A472933D80120390070
:1006C0008143CE79564500D86AE0A1465646039349
:1006D00007E05800C01880001018C479B4424DD902
:1006E00001000623CB56002BF3DAB24602930B1D12
:1006F0004C469946424B4E46043CA41B2405414EB1
:10070000640D34438C808D71019949198900521808
:100710009380029B3C4993715346D3715B461160B1
:10072000936017E039498F4260D139490127D1528E
:1007300038490233D3180439CB1A324A1B055B0DF2
:1007400013436380344BE671A380FF23A3715B46A0
:100750002743A3606246294B9B689F50BFF35F8F7E
:10076000BFF35F8F0022224B1A6088F3108805B018
:10077000F0BCBB46B246A946A046F0BDB2460E1D2F
:100780004C46B14688880293039B4005001504330C
:100790004844D318C31A1B051A485B0D0343AAE744
:1007A0009E1CB14691444E460F001C4DBF1A7F411E
:1007B0007D432D0D164FA571D752164F0433043FBC
:1007C000D318BF1BCB1A3F05043B7E0D1B050D4FF5
:1007D0005B0D3E431F435346E3715B46A3600A4BE8
:1007E000A7806680044327000B60B3E700F036FF64
:1007F000240100D0851D00208410002000ED00E0C1
:1008000001BD000000E0FFFF01488047C10100106A
:1008100000A1FFFFCC10002001BDFFFFAAAA00002D
:100820000123034370B59C46EFF30581EFF3108578
:1008300072B6274A1368002BFCD0BFF35F8F254A9E
:100840000400254BA41A644163431B0D234C89000B
:10085000A6685BB27658664524D006215156994267
:1008600024D01221515699422AD01E215156994224
:1008700028D02A215156994226D0362151569942E4
:1008800024D0422151560524994210D0144A11789F
:1008900013708171BFF35F8F00220D4B1A6085F3D7
:1008A000108870BDA2680F4C5450EFE7002461001F
:1008B000091989005218FF2191710B499180E5E7D0
:1008C0000124F4E70224F2E70324F0E70424EEE72E
:1008D000240100D084100020AAAA000000ED00E04E
:1008E000851D0020C101001001BDFFFF00B5074BB1
:1008F00083B001000093002205230548FFF7C2FDE5
:10090000002801DB1F23181A03B000BD4C6700103C
:10091000891D0020024BC918890001607047C0463C
:1009200040000034F8B5144C144EB44223D2013EBA
:10093000361B0025FF27F6080EE0FFF7E7FD010054
:100940002000FFF7E7FF002327716371BFF35F8F7C
:100950000834B5420FD001352368002BEDD1FFF7E5
:10096000D5FD01002000FFF7D5FF2771BFF35F8F92
:100970000834B542EFD1F8BD681100207011002095
:1009800010B50400FFF7C2FD01002000FFF7C2FF11
:10099000FF232371BFF35F8F10BDC04610B5040065
:1009A0000120FFF7BFFD034BC01880002060BFF39C
:1009B0005F8F10BD40000034034BC91889000160EF
:1009C000BFF35F8F7047C046400000340A4B196880
:1009D000EFF3108072B60A68002AFCD0BFF35F8F75
:1009E0001B68BFF35F8F00221A6080F3108840BF3E
:1009F000002000217047C046601D0020F0B5DE4693
:100A000057464E464546E0B585B0EFF305830322D1
:100A10001A40B84B91005F58012393409B460292C5
:100A20005A468846B44B1A60B44B03935B46B448AD
:100A300043630823FE5E002E37DA0422BB5E002BE0
:100A400000DBA4E0BB79002B00D0E4E00823F95ED2
:100A5000002920DB4B007A695B18DB00D3189D6806
:100A6000DC686B1C00D10AE1A54801004144826AA0
:100A70000B69AE1A9B1A9E4215D30123026A029893
:100A800083401A420FD09E4800F02CFB8C4202DCBF
:100A9000CCD18542CAD940BF05B0F0BCBB46B246F6
:100AA000A946A046F0BD0D61EDE77A697300914655
:100AB0009B19DB0099444B469C68DD6800F012FBF3
:100AC0008D42BADC00D104E1002D00DAE9E04A46AB
:100AD0004B4652691B699246039A934200D1DAE071
:100AE0004A460821785E52880004514610439847D0
:100AF000009001910099019A0B00134300D1D0E0BE
:100B000013000A00002B00DBE7E020002900801A18
:100B100099414B469860D96000229B5E002B00DA19
:100B20008BE75D007C69EA18D200A21800949468F3
:100B3000D268A2468A4200DD7FE702D1844200D912
:100B40007BE70824A4463B81BC44009C00972F000F
:100B50006546B4463E0006E05E00F218D200A218D8
:100B60009768D268BA468A4207DC00D1CAE0F31817
:100B7000DB00E518E35E002BEEDA4A466646009F8E
:100B800013802E800422BB5E002B00DA5AE73A69FC
:100B9000EFF3108172B61368002BFCD0BFF35F8FA8
:100BA0000423FE5E01235B42BB803B69BFF35F8F82
:100BB00000221A6081F31088002E00DA42E7082331
:100BC0009946BC467D69B94463467400A41908225D
:100BD0009A5EE4002C19002A55DBA7684946E068B4
:100BE000009706E087423ED019000023CA5E002A23
:100BF00006DB53009B18DB00EB18DF688742F1DD52
:100C00000E800023E65E2280002EDDDA6746BB7987
:100C1000002B00D11AE70023BB710822BB5E5A1CCF
:100C200000D138E73D0008352E00786903E00E005A
:100C30005A1C00D10AE71A005B009B18DB00C118A0
:100C4000C35E02254C5F002CF1DA01246442E517F3
:100C50008C60CD6008257C5F9442E9D033803C896C
:100C60000C803A81E4E79F68BA46009FBA45BBD939
:100C70000E800023E65E2280002EA5DAC6E7631C04
:100C800000D0F1E6FFE649460E800023E65E2280B2
:100C9000002E99DABAE7534650461B699847002858
:100CA00023D14B461B883A693B81EFF3108372B620
:100CB00011680029FCD0BFF35F8F49467A880A800B
:100CC0003A697E80BFF35F8F0021116083F3108843
:100CD000B3E6844200D8F7E6AFE6094800F002FA2E
:100CE000009B019CC018614113E753460CCB009256
:100CF0000193FFE6441D00203C700540FD090010F3
:100D000000400540824500D831E736E770B52D4CEC
:100D10002569002D04D00A212B48FFF7FBFD70BD8B
:100D20002A4E0321294800F0D3F9E660FFF7EEFBD5
:100D3000274B0322C018D02322701B061B680121F9
:100D40006370244B8000A3600F2320610220638026
:100D500063694942A18019800231198647311D8398
:100D6000585218315A5275325C3999521832013141
:100D7000995218320131995218320131995208357D
:100D800018329D520231183299521832013199525B
:100D90001832013199521832013199521832013109
:100DA00099521832013199520B4B0C49DC600130D9
:100DB0003562FFF72FFC01210320FFF7F5FB084BFD
:100DC0001D60A8E7F0100020601D002000400540D5
:100DD00040000034FFFF1000441D0020FD090010FA
:100DE0003860054000487047F0100020F8B51F003B
:100DF00008AB1B7804001600002B07D100F07AF92D
:100E000032003B00121A8B41002B51DB2269EFF3B9
:100E1000108C72B61368002BFCD0BFF35F8F0223D7
:100E2000E15E256900293ADB4B0060695B18DB0055
:100E3000C218C35A6380BFF35F8F00232B608CF30B
:100E40001088069B9660D7601361079B5361538897
:100E500001335B045B0C181C002B1ED083B2508046
:100E6000080418432569EFF3108672B62B68002B2F
:100E7000FCD0BFF35F8F0425635F1380A1802369DB
:100E8000BFF35F8F00221A6086F310882378013247
:100E90009A400849E3685A50F8BD0120DEE7BFF3E5
:100EA0005F8F00232B608CF3108801204042F3E712
:100EB0000020F1E73C20000070B582B00092019361
:100EC00001000269EFF3108472B61368002BFCD0A6
:100ED000BFF35F8F0223C85E0D6900283FDB4A69BC
:100EE000430016001B18DB00D218F35A4B80BFF3E7
:100EF0005F8F00232B6084F31088069B1361079B90
:100F00005361009B019C9360D460538801335B0460
:100F10005B0C1D1C002B20D0ACB203045580234376
:100F20000D69EFF3108C72B62C68002CFCD0BFF367
:100F30005F8F04254C5F148088800A69BFF35F8F40
:100F4000002010608CF310880A7801309040CA6845
:100F500007495050180002B070BD0125DCE7BFF30F
:100F60005F8F00232B6084F31088013BF2E7C046BB
:100F70003C20000010B543890A14934219DD530048
:100F80009B184269DB00D3180469EFF3108C72B62A
:100F90002268002AFCD0BFF35F8F5A880904090C2D
:100FA000914208D00369BFF35F8F00221A608CF36F
:100FB0001088002010BD094A0A435A8001230269A3
:100FC0008371BFF35F8F002111608CF3108802786A
:100FD00003499340C26801205350EBE70080FFFFB4
:100FE0003C20000040787047F0B5CE46474680B5BB
:100FF00004000D0085B0EFF305838946002B32D144
:101000002F4E336883422AD02E4FFB683A78984699
:101010001800039200F066F8039A131D42469B00E5
:101020009B5822001B1A9C462B00121A8B41190058
:10103000002310008B421EDC1BD020BF224B586ABD
:10104000484514D3401B9A6A431E98410023A2428C
:101050005B41184305B0C0BCB946B046F0BD7368EB
:101060008B42D1D1E9E7184B586A8842EAD2002076
:10107000F0E78445E1D900F03DF822002B00121A78
:101080008B41002BDADB00230193104B22000093ED
:1010900038002B00FFF710FF0028CFDD0A4B30C6C9
:1010A0005A6A4A4509D39B6AA34204D30100380017
:1010B000FFF760FFC2E74A45F8D120BFF6E7C04618
:1010C000E8100020F010002000400540CD0900107D
:1010D00010B5024A0248FFF7ADF910BD686700106D
:1010E000D01800200300416A0A00986A596A8A42AF
:1010F000FAD17047034B596A0A00986A596A9142BB
:10110000FAD170470040054070B505000E00184A3E
:10111000536A1900946A536A8B42FAD1200019006D
:101120002C00350024184D41AB4216D813D0104B7B
:101130002A005B6A9D4203D90D494B6A9342FCD356
:10114000934207D10A4A02E0516A994202D1916A58
:10115000A142F9D370BDA042E9D9054B5B6A1C00DE
:101160005A1CEFD0012201246442E5175242E3E702
:1011700000400540F8B5040006200D0000F064F9B9
:10118000002843D0354B3649E3185A1E934180223C
:101190005B429B0D12049B059B18324A1360324A36
:1011A000136018000A689043FBD12C4B2F4AE318B8
:1011B00059424B4180215B0049000620995200F0C2
:1011C00043F92900C00000F09BFB0130C3091ED188
:1011D000402701226262A362266BF30722D4E36AEE
:1011E000234B0620E51800232B60266300F02CF922
:1011F0003900800000F084FB7023E26A5A400E330D
:1012000013402B601B4B23630323A364F8BD1A4ACE
:1012100093421CD90023194A194F6262A362266BBC
:10122000F307DCD5134A174B0620E250656AA36A20
:10123000AD01ED1800F008F9134900F061FB010061
:10124000A80200F05DFB0021FFF75EFFC7E7400644
:101250009A01800E17181A000300BBE70080FCBF3C
:1012600008C0004000E0004000F000406C1D00207D
:101270002C10000001030000FEFF0000FFFF000033
:10128000C0FF3F00303000004E0E0000F8B5DE46D3
:101290004E4645465746E0B505008B4618000A996C
:1012A000914600F02DFB0A9B6C001E0264192E4B28
:1012B000A400E418636880469E4200D96660C0239B
:1012C0002F1FFAB29B019246E318012A2BD98022E4
:1012D000264FAD00795912011A6000291AD14B46E8
:1012E00022685B015340E022134080225201A21881
:1012F00013605346012B2BD9802380229B011201BE
:10130000E250434666607B51F0BCBB46B246A946FC
:10131000A046F8BD786900F0F3FA013043001B18CD
:10132000033BFDD2DBE75A46012AD0D102321A60D4
:10133000023AA3681A42FCD04A46236852015A4036
:10134000E023134080225201A218084F1360AD0021
:1013500058460323216841400B401360012282401C
:10136000A3681A42FCD0C7E700800040D4180020D0
:10137000F0B5D6464F464646440098462418304BB2
:10138000A400E41863688A469146C0B5FF2B02D8D2
:1013900080235B006360C023061F9B01F6B2E31845
:1013A000012E2BD98022274F8500795912011A600E
:1013B00000291AD14B4622685B015340E0221340BA
:1013C00080225201A2181360012E2CD98023802282
:1013D0009B011201E25080235B00636043467B5116
:1013E000E0BCBA46B146A846F0BD786900F088FA7C
:1013F000013043001B18033BFDD2DBE75246012AB4
:10140000D0D102321A60023AA3681A42FCD04A468E
:10141000236852015A40E023134080225201A2184F
:10142000084F1360850050460323216841400B405C
:10143000136001228240A3681A42FCD0C6E7C0466E
:1014400000800040D4180020014B8000C058704735
:10145000D4180020F0B5C646040000B522489046D6
:101460001E000D0000F04CFA0100404600F048FA62
:10147000069B84461A03236830041043002B22DBAA
:101480001A4BE218531E9A4180235242120B9B01C1
:101490001203D218164B1A60164B1A60164B160020
:1014A00019688E43FBD1634621222560A360134B4C
:1014B000E3181A602268002AFCDA0822E0601A6049
:1014C00080BCB846F0BD3F2322681340AB42D7D161
:1014D000A3681B051B0D6345D2D1EE22E368D2023F
:1014E00013408342CCD1EBE7001BB7000040FDBFA7
:1014F00000E0004000F0004008C000400430000060
:101500008C4680211B4BC905196000281BD0012384
:1015100019491843194BD96119494140196261466B
:10152000596298628021134BC90519601548164904
:101530000860E021C9041960002A07D18022134BFA
:1015400012061A6070470D4BD861EBE753019B1AE6
:101550009B009A180E4B12019A4209D813000D49AC
:101560000B60064B5A608022084BD2051A60E9E7EF
:101570001A00F4E700B00540D3C007B00080054072
:101580002D3FF84FFCFF01000820014000A005405E
:10159000FFFFFF00341D00208023024A9B000B4305
:1015A000D362704700800540002310B50100988A7F
:1015B0001B8B984710BDC046002310B50100D88A88
:1015C0001B8B984710BDC046F8B54746CE4680B540
:1015D0000F1E18D014239946043304000025012659
:1015E00098464B461888434621681B88984701C493
:1015F000431E984101350640AF42F2D13000C0BCD5
:10160000B946B046F8BD0126F8E7C046002370B5DC
:1016100004000D00988A05491B8B984703000020A1
:10162000002C01DB0130A040290098475542000002
:10163000AA23064A1B0113608D235B00D360044973
:10164000044B19605368002BFCDA704700400240DD
:1016500000B0FA00006002407047C04610B5014873
:10166000FEF7D0FE8C67001070B5074D074EB542EF
:1016700009D20024013E761BB608013608CD01349C
:101680009847B442FAD170BDD866001014670010B4
:10169000054B064A06491A60064A074B1A601000B5
:1016A0000B689843FBD1704700E00040BFCDFBFEC4
:1016B00008C00040FE7F3C0000F00040044BDB6CA3
:1016C000002B03D18022034BD2021A607047C04620
:1016D000000011504C201150044A054B1A60054A75
:1016E0001368DB018033FBD17047C046FFFFFF0169
:1016F00000F0004008C000404022034B9A675A6740
:101700001A67DA667047C04600F0014010B5FEF770
:1017100019FF10BD70B52749274D284E6D1AAC082A
:101720002200302C00D930223000920000F07EFFE1
:101730002F2C3CD823002A3B214A052B1CD93020D2
:1017400075196D07A446001BEB0F002D03DAA100ED
:101750007250611C8C46C01AE31845089B00F318B0
:10176000E900C9181A605A6008338B42FAD16D003B
:10177000A8421CD02C006444A300F250631C2F2C00
:1017800015D09B00F250A31C2E2C10D09B00F250C1
:10179000E31C2D2C0BD09B00F250231D2C2C06D0CB
:1017A0009B00F250631D2B2C01D09B00F250054B87
:1017B0009E6070BD00010010C001001000000020FC
:1017C000C101001000ED00E0002310B5294C82B0EB
:1017D000A367FFF72DFF0122274B1A60636C012BD3
:1017E000FCD10322254B1A60224A936B012BFCD1BA
:1017F000013300930121224A22480433FFF72AFED5
:10180000052301210093204A2048FFF723FE0022F0
:10181000022104201E4BFFF7ABFD00220121052011
:101820001C4BFFF7A5FD0022002107201A4BFFF7F4
:101830009FFD002200210820174BFFF799FD802310
:10184000DB000093002200210920134BFFF71EFD4F
:101850000022104B00210620FFF78AFD0420FFF72D
:10186000F3FD0E4900F04CF801000020FFF794FE54
:1018700002B010BD008000403CB0004030B00040DD
:10188000002F685900800240008C864700C002404B
:10189000001BB70040597307006CDC0240420F0088
:1018A00001480421014B184710110020C9150010F0
:1018B000124A936F9B0815D29066D166002905D015
:1018C000FFE7FFE7FFE7516F106F704704B5802116
:1018D0000906C2175140002800D0C84304F0C4FED6
:1018E000002104BDF0B5146E556E576F166FFFF7EB
:1018F000E3FF1466556657671667F0BD000000D019
:10190000114A936F9B0813D210665166002905D0C7
:10191000FFE7FFE7FFE7516F106F704704B500283E
:1019200001D00020C04304F09FFE002104BDC0464A
:10193000F0B5146E556E576F166FFFF7E5FF14661E
:10194000556657671667F0BD000000D094464A4AB6
:10195000926F9208624601D228E0C046F0B5464E2A
:10196000346E756E776F366F00F020F89446424AF9
:1019700014665566576716676246F0BD94463E4A40
:10198000926F9208624601D254E0C046F0B53A4EDA
:10199000346E756E776F366F00F04CF89446364AA9
:1019A00014665566576716676246F0BD002B24DB48
:1019B00011D000293EDA00B5C943404200D10131BF
:1019C00000F038F8C943404200D10131DB435242B4
:1019D00000D1013300BD002AEBD1002801D100293C
:1019E00005D00020C90FC90701D1C043410800B587
:1019F00004F01AFE0022002300BD00B500290ADB16
:101A0000DB43524200D1013300F014F8C943404295
:101A100000D1013100BDC943404200D10131DB4357
:101A2000524200D1013300F005F8DB43524200D1AD
:101A3000013300BD002923D1002B18D1002A0CD07E
:101A4000BC460D4F38667A6600210023FFE7FFE7AA
:101A5000FFE77A6F386F67467047002801D0074864
:101A6000010000B504F0E0FD0022002300BD0200EB
:101A70000B00002000217047000000D0FFFFFFFF97
:101A8000002B00D0BFE0130C28D1002AE7D080B48F
:101A9000114F39667A66FFE7FFE730B4040C7B6FBD
:101AA000396F1B0423433B667A66FFE7FFE7FFE7D6
:101AB000C04684B27B6F3D6F1B0423433B667A664E
:101AC000FFE7FFE7C04600232C042D0C7A6F386F28
:101AD00000196941B0BC7047000000D0F0B59446D1
:101AE0000025140E01D112020835140F01D1120184
:101AF0000435940F01D192000235D40F01D1520068
:101B00000135D40B0134254F7C66254C3C660E0C08
:101B100093B2FFE7FFE7FFE73C6F6643360C7703BE
:101B2000BE467343DF0B5B04C01AB941130C734309
:101B3000DB18C91ACE086643360CB64493B2734319
:101B40001F0F1B01C01AB941130C73431F0B1B0558
:101B5000C01AB941860D8F023E436643360C092DEB
:101B600024DB520A7243801A7703460A6643360C16
:101B700016235B1BDE40DF40BF1964466643821BB1
:101B80007046043506330100D940A840C01900D37F
:101B90000131A24206D20023F0BD0000000000D0B7
:101BA000FFFFFFFF121B0130F3D3F1E709277F1B73
:101BB000FE406446A2B27243801A00D20139220C60
:101BC0007243130C1204821A99410B0070460435BB
:101BD00013370100F940A840801900D30131002BD0
:101BE00002D1A2420AD2F0BD013000D30131121B52
:101BF000FAD2013BF8D1A24200D2F0BD013000D3AD
:101C00000131121BF7E7F0B51C0C00D080E00CB4DA
:101C100000251C0A04D11B02160E3343120208359C
:101C20001C0B04D11B01160F3343120104359C0B0E
:101C300004D19B00960F334392000235DC0B02D196
:101C400092185B4101351C00971864410134464FDE
:101C50007C66464C3C660E0CFFE7FFE7FFE7C0469C
:101C60003C6F6643360C7703BE4697B27743C01B82
:101C700000D20139C01B00D201399FB27743C91B82
:101C8000C91B170C77437E04FF0B801BB941CE089C
:101C90006643360C0C2D33DBB644120B1F053A435A
:101CA0001B0B97B27743C01B00D201399FB2774319
:101CB000C91B170C77433E043F0C801BB941860DAE
:101CC0008F023E43664329277F1BFE400C3D77462B
:101CD000AF40BF1930BCA2B2ABB272437343801A9B
:101CE0009941220C7243130C1204801A994102008C
:101CF0000B000137001BA941F9D2781E0021F0BD6D
:101D00000C277F1BFE4077467F0BAF40FF19E0E7B3
:101D100000245D1C07D0144F7D663966FFE7FFE79E
:101D2000FFE7FFE73C6F95B29EB265436643401BF9
:101D3000B141150C1E0C6543664336042F0C3E431F
:101D40002D04401BB141994204D202000B00200037
:101D50000021F0BD01D19042F7D3801A994101349E
:101D60009942F2D3F6E70000000000D0FFFFFFFF2A
:101D700048404140484018B41B4B5B68FC46019307
:101D800008BD04DF1B20001018B4174B1B68FC466D
:101D9000019308BD00DF252000109446134A926F7E
:101DA000920809D2624618B40F4BDB68FC460193D7
:101DB00008BD0CDFDD2200100C4AF0B5146E556E24
:101DC000576F166F6246FFF7EEFF084A14665566B6
:101DD00057671667F0BD18B4034B9B68FC46019328
:101DE00008BD08DF81210010C0130020000000D0D2
:101DF000FFB550404240504059404B40594000E0F0
:101E0000FFB5154F4C00640D03D0BC4204D10C0348
:101E100014D80020090D09055C00640D03D0BC42F4
:101E200004D11C030AD800221B0D1B0501264B40C0
:101E300009D44B4003D58B4200D18242FFBD994269
:101E4000FCD19042FFBD0B43DB1803431343F5D095
:101E5000C9434918FFBD0000FF07000000B5FFF7A8
:101E6000CFFF804100BDC04600B5FFF7C9FF01D9D3
:101E7000002000BD012000BD00B5FFF7B9FF01D96A
:101E8000002000BD012000BD00B5FFF7B1FF80417B
:101E900000BD012040054A00121804D85A0012184B
:101EA00001D8002070470120704700000021002861
:101EB00005D17047C1174840401AFAD0C90713B579
:101EC000064B1B6898470CBC441CA2401005120B23
:101ED0000349091B09051943114310BD5C1D00206E
:101EE0001F04000010B54C00620D8023D218DB00E7
:101EF000D21A5B057E2A10DD9E3A13DACC1709034D
:101F0000490819435242D140640001341532202A55
:101F100005DAD0400843604310BD002010BD0846DC
:101F2000604310BDC80FC018013810BD18B4044B71
:101F30005B6AFC46019308BD24DF8D24001000007D
:101F4000C0130020002370B5DD7C012D19D014DDF5
:101F50001F48FFF731FB06001E48FFF72DFB1E4C04
:101F600080223100200000F061FB022D2DD01B48A3
:101F7000FFF71AFB1A4B186070BD1A4B164CA3647E
:101F8000F5E7184B144C23606360A360E3602361A2
:101F90006361A361E36123626362A362E36223631B
:101FA0006363A363E36323646364A364E3642365FB
:101FB0006365A365E36523666366A366E3662367DB
:101FC0006367A367E367A364D1E7064BA364CEE727
:101FD0005344000053460000C01300204C3300005F
:101FE0005C1D0020E91F001007B5604601880A0A41
:101FF0000230DF2AFAD1C9B2820804D302884088AD
:102000000004104300E00068014A5050039007BDEF
:10201000C01300200FB403BC0CBCF0B50124E407CE
:10202000634000E0F0B50C0DCF0F661E3605891B2E
:10203000640503D3C943404200D30131640D03D08A
:10204000661CF60A07D0E41B00207F00791C890774
:102050008912803C24031D0DDF0F6E1E36059B1B6D
:102060006D0503D3DB43524200D301336D0D03D022
:102070006E1CF60A07D0ED1B00227F007B1C9B071D
:102080009B12803D2D032F1B661B58D4A446202E87
:1020900046DA20371400BC401D00BD40F2403341F9
:1020A0002A4380185941CB0F05D0C943C0430022B1
:1020B00064425041514162464D0D28D10D0D07D16A
:1020C00000281FD0241940414941013A0D0DF9D093
:1020D000640006D3013000D30131002C01D1400847
:1020E0004000013A0BD4941CE40A04D112051144B7
:1020F000DB071944F0BDD907204B194300E0D9078D
:102100000020F0BD0029DDD1002CDBD1F0BD013273
:10211000C6074008CD0728434908002EE1D0D9E77B
:102120003C2E29DA203E40371400BC4000D0012468
:10213000F24014431A00BB401C43D317ACE7AC4633
:10214000202F08DA20360400B4400D00B540F840D6
:1021500039412843A5E73C2F0CDA203F40360400E4
:10216000B44000D00124F84004430800B1400C43BF
:10217000C117EAE710001900002494E70000F07F7F
:10218000F0B50C0D661E3605891BE60A6405640D64
:1021900002D0651CED0A04D0002001210905803C15
:1021A0002403A4461C0D671E3F05DB1BE70A6405DC
:1021B000640D02D0651CED0A04D0002201231B052A
:1021C000803C24037740644497B484B296B274434D
:1021D000070C7E43150C6F4380B26843361802D358
:1021E000012000043F183004350C00197D4184465D
:1021F00088B29AB250430C0C62431F0C7C438EB2DF
:102200007E43921902D301263604A4191604170C32
:102210003618674101BC81B29AB25143040C624343
:102220001B0C5C4380B25843121802D301200004F7
:1022300024181004130C401863412D185E4100202F
:10224000474106BC88B293B258430C0C6343120C4E
:10225000544389B251435B1802D301210904641825
:1022600019041A0C091862416D18564100204741A3
:1022700018BCF902720D1143F0026A0D1043ED0211
:102280000A0D03D16D1940414941013B124E9B1B80
:102290007600B3420ED26D0007D3013000267141A3
:1022A0006646354301D1400840001B05C918E407C4
:1022B0002144F0BD0BDA013306D1013004D10131E4
:1022C0004F0D01D04908F2E7E1070020F0BD0136CB
:1022D00031050020EBE70000FF030000F0B51C0D06
:1022E000671E3F05DB1BE70A6405640D02D0661C10
:1022F000F60A04D0002201231B05803C2403D025CC
:102300002D060026F6432E661E096E66CE0FF619C0
:10231000B44649004F0D02D07E1CF60A03D00020BF
:102320000021403F3F033E1BB600B444013F7F0500
:10233000C91B49082E6F013676089C02950D25436E
:102340007543ED137543AD1301356D10F603761B20
:102350000CB4CC02450D2C43A2B2B3B25A43270CA5
:102360007B43350C6F43A4B26C431B1902D3012489
:1023700024043F191C041D0CA4187D4124196D412F
:10238000009A91B2ACB26143170C7C432B0C5F43B3
:1023900092B25A43A41802D301221204BF18220495
:1023A000230C52187B41019C6C431B19520ED9011E
:1023B0000A434401A01A81B2B2B2514303145A43F2
:1023C000360C734387B27743D617D21900277E4164
:1023D00036049B191704160C7F185E417316ED180E
:1023E000F301002680337541A90F06D16400690A04
:1023F000E8055B0A184309D22FE004229444803395
:102400007541A90AA8059B0A184326D340414941B2
:102410002404009A019B0D005543641B4343E41AB6
:1024200095B286B27543170C7E43030C5F4392B29C
:102430005A43B61802D301221204BF183204330CD7
:1024400052197B4152429C41002C02D4002201309F
:1024500051414008CA071043490802B06246D707F5
:102460009210084BD218084B9A4203D212058918D1
:10247000C919F0BD0020002A01DC3900F0BD01338C
:102480001905F5E7FD030000FE070000002200B576
:10249000203200F004F8080000BD000000220B15F7
:1024A0000AD410B5944600F031F81414013400DA5F
:1024B0000021CB17144C20470020002170476244B4
:1024C000343A0CD40C2A07DA04009140904052426E
:1024D0002032D440214310BDD843D94310BD20320F
:1024E00007D40C469440524220321141D040204340
:1024F00010BD0800C917203203D4524220321041C7
:1025000010BD1800190010BDBF2400100A0DCC0F1B
:10251000531E1B05C91A520503D3C943404200D3B9
:102520000131520D03D0531CDB0A07D0121B0020CF
:102530006400611C89078912803A1203014BD21A88
:1025400070470000FF03000051434343C9188C4605
:10255000110C83B24B4310B4040C614392B280B2AD
:10256000504362431C041B0C001910BC5941130456
:10257000120CC0185141614470470000002310B58F
:10258000DC7C1348FFF718F8012C0BD004DD0100A8
:102590008022104800F04AF80F48FFF705F80F4B6B
:1025A000186010BD0B4C01005422200000F03EF8D2
:1025B0000B4B6365A365E36523666366A366E36609
:1025C00023676367A367E3672362E361E4E7C046C9
:1025D00053460000C01400204C3300005C1D002056
:1025E000E525001007B5604601880A0A0230DF2A97
:1025F000FAD1C9B2820804D302884088000410438B
:1026000000E00068014A5050039007BDC01400204C
:1026100001480421014B184720110020C915001062
:10262000014B1B681847000020110020014B5B681C
:1026300018470000201100207047C046F8B5DE465C
:1026400057464E464546E0B599460D9B07008846DD
:1026500093469B0728D00B9B002B3CD05E460B9CDF
:102660000A9D3619321B013C4B464146285DB8474E
:10267000002CF7D135000D9B9B070ED55B46EC1A5D
:102680000C9BA34209D91E002A004B46414620203C
:102690000134B8470135B442F6D32800F0BCBB463C
:1026A000B246A946A046F8BD0B9B0C9A934214D2A1
:1026B00013005D460C000B9A9E1A76192A004B46B1
:1026C000013521002020B847B542F7D10B9BA04629
:1026D000002BC4D1E1E71500CDE7002BBED15D464C
:1026E000DBE7C046F0B54F46D6464646C0B584B097
:1026F0009C460EAB1F78129B9146BA460D9C109ECD
:10270000119D9B0752D4002D47D1B4424ED20123D4
:10271000129F1F40B8460C9B5F1E302303E001341C
:102720003B55A64201D9202CF9D14346002B00D1BC
:1027300083E00C9B5F1E3023A54204D836E00134B1
:102740003B55AC4232D0202CF9D1129BDB0614D57C
:10275000129B5B0553D4A64263D0A54261D00F9B68
:10276000102B4FD0022B57D0202C06D02300013441
:1027700030260C9AD654202C2AD1129B4A46039319
:102780000C9B0295009301946346FFF757FF04B03A
:10279000E0BCBA46B146A846F0BD0123129A1340E8
:1027A00098460123134223D1B442B4D3129BDB06D3
:1027B000E1D5129B5B05D2D4002CCCD10F9B102B02
:1027C00054D00F9B022B6AD0302301240C9A137033
:1027D0005346002B07D1129B5B0736D52B230C9A4F
:1027E00013550134C9E72D230C9A13550134C4E75E
:1027F000002F32D0013DB44200D28CE799E70F9B05
:10280000102BBAD1129B9B063AD5202CB5D0582359
:102810000C9A13550134A7E7202CAED023000134C5
:1028200007E0631E012CC9D00F9A102A3ED0022A5D
:102830009ED162260C9AD65496E7129BDB069AD557
:10284000129B5B0500D486E789E7129B1B0794D592
:1028500020230C9A135501348FE70C2313405F1E7D
:10286000BB41ED1AB44200D255E762E7129B9B06CA
:102870000ED478230C9A02241370483B5370A7E7B8
:10288000202C00D179E778230C9A135501346BE79B
:1028900058230C9A02241370283B537098E70C9A23
:1028A00060331370323B0224537091E70C9AA61EDA
:1028B0009619129A920602D55822327058E7782259
:1028C000327055E710B5002800D110BD01F04CFC66
:1028D000FBE7C04610B5002803D04A680B6811001A
:1028E000984710BDF0B54E46DE4657464546E0B522
:1028F00095B082468946934698461E9A1F9B1000C3
:102900001900209EFFF7C5FA002800D0D3E11E98D9
:102910001F990122C34B5242FFF7A0FA002800D0B2
:1029200001E11E981F990122BF4B5242FFF7ACFAFA
:10293000002800D0D6E01E981F990022BB4BFFF75D
:10294000A3FA002800D0B5E01E981F990022B84BCA
:10295000FFF784FA002800D0ACE01E981F990022EF
:102960000023FFF77BFA002800D0D1E000230B936F
:10297000229B5B0500D406260024302306E006AA2D
:10298000013417321355013E202C01D0092EF6D800
:102990001E981F99FFF7A6FAA64BF2009B180CCBC6
:1029A000050008920993FFF785FA02000B001E98B4
:1029B0001F99FFF7E0F9089A099BFFF70CFA0690B8
:1029C0000791FFF7B3FA0700FFF770FA02000B0058
:1029D00006980799FFF7CFF90022974B06900791C9
:1029E000FFF752FA002800D1E9E001373800FFF77D
:1029F0005DFA02000B0008980999FFF735FA0028E4
:102A000001D000270135002E00D1B7E0069514E073
:102A100006AB9C4617230A216344380001341D1974
:102A2000FEF76EFF3031297038000A21013EFEF7B3
:102A300067FF092F00D8E0E00700202CE8D10CAB9D
:102A4000069D0693172706ABFF180DE028000A2104
:102A5000FEF72EFF01343031280039550A21FEF7E8
:102A600027FF051E00D1B7E0202CEFD10323229AC7
:102A70001340012B17D1219B002B14D00B9B002B53
:102A800000D1E1E0219B013B2193202B0BD9302386
:102A9000219A06E006A9013417310B55944200D360
:102AA000A0E0202CF6D1229B01940393219B02935A
:102AB000069B21E0229B5A460493219B494603939F
:102AC00050461E9B1F9C029600930194434600F0C3
:102AD00045F90400200015B0F0BCBB46B246A9463B
:102AE000A046F0BD229B5B070FD40322534B2299D3
:102AF000019203912199029100935A464346494617
:102B00005046FFF79BFD0400E4E704224C4BEEE740
:102B10001E9A1F9B00200021FFF72DF901231E9014
:102B20001F910B9324E70223229A1A40229B0692BC
:102B30009B0700D1A0E05C462600424D08942F1F61
:102B40003200E87843464946013DD0470136AF425E
:102B5000F6D1089C069B0434002BBBD05F46219A1B
:102B6000E31B9A42B6D9150022004346494620206D
:102B70000134D047E31B9D42F6D8ABE72800FFF7AE
:102B800099F902000B001E981F99FFF7F4F82A4BE1
:102B9000002206000F00FFF761F90CAB0693002836
:102BA00000D04FE7002230003900234BFFF76CF9CB
:102BB000002800D046E7012301359D4342E700226B
:102BC000069807991C4BFFF749F9002800D01AE72F
:102BD000002F6BD1013716E70323229A1340012BF4
:102BE00000D1A7E0202C00D15DE70B9B002B38D053
:102BF0002D23069A1355013455E73023069D3619C7
:102C0000202C06D135E006AA013417321355202CAA
:102C10002FD0B442F7D12E230CAA0134069293553B
:102C200010E7C046FFFFEFFFFFFFEF7F65CDCD410F
:102C300065CDCDC1886900100000E03FE467001059
:102C4000DC670010EC6700100C23229A13426CD052
:102C5000219B013B2193A34200D918E7202C00D1EE
:102C600021E7229B5B0718D52B23069A13550134C5
:102C700019E70CAB0693E5E6219B042B00D85AE735
:102C80005D464F462C1FE4182A00434601353900A3
:102C90002020D047A542F7D14EE7229B1B0700D446
:102CA00001E72023069A13550134FCE6FB0700D404
:102CB000A9E60137A7E60227229B1F409B0722D0E7
:102CC0005D4606975746244EEC1C2A00B0784346D2
:102CD00049460135B847013EA542F6D1069F002F6F
:102CE00000D1F7E65F46219AE31B934200D3F1E659
:102CF000150022004346494620200134D047E31BFB
:102D00009D42F6D8E6E6219B032BD9D95C4606976F
:102D10004F46E51EED1822004346013439002020BD
:102D2000D047AC42F7D1069FCBE7219BA34200D905
:102D3000ADE6B8E6219B002B00D153E70B9B002B9F
:102D400082D0219B013B21939C4200D29FE6202C04
:102D500000D04DE7A7E6C046E8670010F0B54E4644
:102D6000DE4657464546E0B59BB0249C259D8346EC
:102D7000894692461E0022002B0020002900FFF702
:102D800088F8002800D0C4E00122200029007F4BF1
:102D90005242FFF779F8002800D0BAE00122200063
:102DA00029007B4B5242FFF759F8002800D0B0E0D1
:102DB0000022002320002900FFF750F8002800D04F
:102DC00018E208940995089809998023289ADB004D
:102DD0001A400F928022289F120117403A000E9746
:102DE000289F88460A901F4200D0A7E00B000343AB
:102DF00000D0D1E0002A00D024E23A000633269326
:102E00000223134098460223134200D111E200230B
:102E100000270E930233984602330C9300220023BE
:102E200020002900FFF71AF8002800D0B3E1594B21
:102E3000289A134004930E9B0393269B0293089BAE
:102E4000099C009301944946330052465846FFF7C7
:102E500049FD02002020289B0025034059424B4198
:102E60005B421840531C0893494633004530D8470D
:102E7000FB17FC185C40FB0F1F270A930C9B0C965A
:102E8000013B0E930AABFF1806E020000A21FEF773
:102E900037FD0400202D08D00A212000FEF730FD68
:102EA000013530317955092CEFD8052306930E9B57
:102EB0005F460593002304930A3303930A9B0C9EF9
:102EC000029312AB0093494633003800089A0195EB
:102ED000FFF708FC4346002B29D05346C41A279B12
:102EE000A34224D980461D00534649461A19202082
:102EF00033000134B847A542F6D840465146279CD6
:102F0000421A01320023944200D3A9E1013018187B
:102F10000DE0289B009401950493279B0393269B27
:102F200002933300524649465846FFF7DBFC1BB07C
:102F3000F0BCBB46B246A946A046F0BD01432DD128
:102F40000E9B3A00002B00D15AE700270023984639
:102F5000269BBB4200DD92E10022002320002900D5
:102F6000FEF77CFF002800D04CE1289B094A1A405C
:102F70008023DB0013430493279B03934346029370
:102F8000089B099C00930194CBE7C046FFFFEF7FAD
:102F9000FFFFEFFFFFF7FFFF06232693434658008E
:102FA000BB4B400DC018FEF785FFBA4ABA4BFEF77F
:102FB00012FFBA4ABA4BFEF7E7FE43461F03B94B6E
:102FC0003F0B3B430C900D9100220A981900B64B21
:102FD000FEF7D1FEB54AB64BFEF7FDFE02000B0030
:102FE0000C980D99FEF7D0FEFEF77CFF0700FEF768
:102FF00061FFB04AB04B0A900B91FEF7ECFE002245
:10300000AE4BFEF7C1FEFEF76DFFAD4A80460A9853
:103010000B99AC4BFEF7DFFE0A900B914046FEF792
:1030200049FFA94AA94BFEF7D6FE02000B000A98F9
:103030000B99FEF7A0FE02000B000A900B91FEF721
:10304000CAFE0C900D910A980B9902000B00FEF736
:103050009BFE0022109011910C980D999C4BFEF74D
:103060009CFE00229B4BFEF78FFE02000B000C988B
:103070000D99FEF792FE0022974BFEF785FE0200A7
:103080000B000C980D99FEF788FE0A9A0B9B0C908A
:103090000D9180210020C905FEF76DFE02000B0096
:1030A0000C980D99FEF770FE02000B001098119914
:1030B000FEF773FE00227B4BFEF766FE4346874A0F
:1030C0000A900B910A980B999B181B050022FEF79A
:1030D00082FE02000B00089809990A920B93FEF7F2
:1030E000BDFE002808D00A980B990022794BFEF704
:1030F00054FE0A900B91013F0A990B9A0B001100A4
:103100003A006332C62A57D80222289810400E9AF5
:103110008046002A00D198E004220C920B4300D193
:1031200014E7089809996E4A6E4BFEF7A5FE002831
:1031300008D00898099900226B4BFEF78FFE0028F3
:1031400000D003E7269B002B48D00F9B002B45D0D7
:10315000269B0C9A013B2693279B934205D9434615
:10316000002B00D182E00223984600230E93002F0B
:1031700000D153E60A9A0B9B08980999FEF70DFEB9
:10318000002208900991002320002900FEF766FE26
:10319000002800D14BE6089C099D289A8020534BBB
:1031A00000061340220004930E9B0393269B029378
:1031B0002B180092019346E60222289810400E9A9E
:1031C0008046002A32D1279B052B04D900285AD1EA
:1031D000279B053B0E9305230C93CBE7279B0C9A6B
:1031E0009342C2D94346002B40D000230E930233B2
:1031F0009846BCE780231B069C46AC446346089473
:103200000993E0E5289B394A8020089C099D1A40D3
:103210008023DB0013430493279B22000393434640
:10322000000602932B18009201937AE605220C9275
:1032300074E7279B042B17D3043B0E93042300272A
:103240000C93EBE50523984686E6279B042B04D9CF
:1032500000280FD1279B043B0E9304230C9386E791
:103260004B1E1B191B1A51E60423E5E7279B9B1AEB
:103270000E937CE704230C93023B984677E7DB1B15
:10328000013B984668E60223984603330C9371E7A6
:1032900001FCFFFFFB799F501344D33FB3C8608B01
:1032A000288AC63F0000F03F0000F83F61436F638B
:1032B000A787D23F71A379094F930A400000E03FEE
:1032C0001655B5BBB16B0240EF39FAFE422EE63F10
:1032D00000002C400000244000001840FF030000C4
:1032E0002D431CEBE2361A3F80842E41FFF7FFFF8F
:1032F000F0B55746DE464E464546E0B59FB01F0046
:10330000289B92460B93C64AC64B8B460A901A607E
:10331000002900D102E2002338789946002800D124
:1033200004E2C14B5D460993C04B56460D934B4694
:1033300008930BE0089A3300904629000A9CA047A6
:103340004346013308933878002876D00137252882
:10335000F0D110239B46083B9A46043B9946023B1A
:103360009846013B00229C463878791C0300203B9C
:10337000DBB2102B03D8099C9B00E3589F46030047
:10338000303B092B00D8E2E0002398462A2800D1E0
:1033900032E100230C932E2800D1C7E068235B4262
:1033A0009C4684446346DBB2122B1DD89B001C0054
:1033B0000D9B1B599F4663460F001A43D4E74346B3
:1033C0000F001A43D0E74B460F001A43CCE75B4689
:1033D0000F001A43C8E753460F001A43C4E7802082
:1033E00040000243787801310F0065283ED8462816
:1033F00000D9C2E025289DD024289BD9452800D19A
:1034000092E2462896D120210A4307200B99049284
:103410004246CB1D8343190003920C9A0A980292EC
:103420000CC9009201930B9133002900089AFFF711
:1034300059FA08903878002888D1089BAB469946FD
:10344000B2461C00CA4503D801235B425344994647
:1034500053464A46594600200A9DA84720001FB0FF
:10346000F0BCBB46B246A946A046F0BD782800D9BC
:1034700060E7682800D85BE1010001236939C9B21F
:103480008B409C4661466A4B1C00194063462342B0
:1034900000D06CE1732800D1D0E0702800D049E75B
:1034A0000B9B01CB84469846002800D0F1E1102008
:1034B0001300834311301843520521D40EAB6246EA
:1034C0009C461F2363441C000F239C46089B834695
:1034D00099460C9B9A4602E0120920290BD06346BC
:1034E000134018003730092B01D830331800013150
:1034F00060540F2AF0D84B460893534658460C9315
:103500000C9B08220493102303930023029316AB11
:10351000069005920191009329003300089A0A98B9
:10352000FFF7E0F8434608900B930CE78020303B10
:103530009946C0000243787881444B46092B00D855
:1035400088E12A2800D197E10F00013126E7002306
:1035500094461F00089C00E00131BB00DB195B00B2
:103560001F180878303F0300303B092BF4D9B846C8
:1035700062460F00089401310BE70100012347392F
:10358000C9B28B4019002B4B194200D0AAE22A4B3A
:10359000194200D0C2E1632800D0CBE6089B01337A
:1035A00099460B9B04339A46920700D468E2089A26
:1035B0000B9B93461878290033000A9CA0475B4672
:1035C000434408934346012B00D804E32B004C46A8
:1035D000B9461F00B046089D0A9E220043460134AA
:1035E00039002020B047AC42F7D1534608954646F3
:1035F0003D000B934F46A6E60B9B01CB804600286F
:1036000004DB0F0008780B930131C2E6022002436D
:103610004046404280460F0008780B930131B8E6DF
:10362000F1320010301D0020F86800103C690010D5
:103630004190000000000228010000400B9B02CBDB
:103640008A460C999B46002900D120E15346187800
:1036500051448C465146002800D1E2E30C9B089C63
:103660009946634694461A004B780131002B01D0ED
:103670009142F9D14B460C9353466246CB1A0894BB
:103680001093510500D407E1109B0C998B4200D98F
:10369000109102210B0013400E93114200D126E33A
:1036A00002230E930C9B089A994653469B1A9A46FE
:1036B0004346089353469144BA46A8461F004D46D8
:1036C000B1460A9E08E0541C4B464146B047385D5F
:1036D000002800D184E122009542F4D14E46A9464B
:1036E000089B454698464B4657460893F1E0787844
:1036F0006C2800D16EE180277F003A43013173E6E8
:10370000802080000243013178786DE6787868285F
:1037100000D15AE1802701313A4365E6D74B38782A
:103720000A9300239946002800D0FAE5002489E690
:10373000662800D169E6672800D0FBE580210901F1
:103740000A4307200B9904924246CB1D834319007C
:1037500003920C9A0A9802920CC9009201930B9161
:1037600033002900089AFFF7F9FA0890EBE56F2873
:1037700000D1DCE000D9AAE1102113008B439C4664
:10378000692800D078E380211300C9000B409A46D5
:103790000A4203D01120824394468A468021624621
:1037A000634689000A400B4200D120E10823994674
:1037B0000B9AFA39FF3907328A4391444B4606CABD
:1037C0000B930E910F92002A00DCDEE100239A4653
:1037D000002399460EAB9B461F235B449B466346E2
:1037E00010934346B84611935F46B3464E46A946EA
:1037F0000E9C0F9D03E004000D00202E0CD00A2229
:10380000002320002900FEF7B9F801363032BA55FE
:10381000002DF0D1092CEED8109B47469C46119BF9
:103820004D469846B1465E46634606934346059329
:103830000C9B04930A230393534602934B46019334
:1038400016AB009329003300089A0A98FEF74AFF46
:10385000089078E50F000021089C8B005B185B0046
:1038600001371918387830390300303B092BF4D967
:103870000C910894791C91E50B99023708C9D8433B
:10388000C01703400B9138780C93791C86E50139F9
:10389000DCE62120104311E602210B0013400E93B9
:1038A000114200D15CE202230E935346089CB146BC
:1038B0001B1B1E00BA462F000A9D22004B463900F2
:1038C0000134A847305D0028F7D13D004E465746E9
:1038D00008945B460B930E9B002B00D133E5089BAD
:1038E0009946109B984500D8BBE2089C4444E21AD4
:1038F0002B004C461500B9461F00B0460A9E220018
:103900004346013439002020B047AC42F7D15B4632
:10391000089546463D000B934F4614E5472800D0D6
:103920000FE7802109010A4320210A4309E7082300
:103930009C460023109308330E9380211000C90089
:1039400008400A4200D1D8E00D218A4311008022AC
:103950000B00920013409A46114200D041E18022B0
:103960000B005200134099460B9B043310930B9BA2
:10397000114200D0FAE14A0600D522E10A0600D43D
:1039800061E21B889A465346002B00D070E110225A
:103990009143002800D16BE10023994643460593EB
:1039A0000C9B069104930E9B0393002302934B46BA
:1039B000019316AB009329003300089A0A98FEF78A
:1039C00091FE109B08900B93BDE4C021B8780A4388
:1039D000F91C09E5C02189000A43B878F91C03E500
:1039E000089B4546574698464E46089471E7802105
:1039F00049000B4099460B9B181D0E9060460842EB
:103A000000D07EE0420600D4F7E10B9B1A78002A32
:103A100000D1ECE1924600220EAB9B461F235B4493
:103A20009B46634654460B93AA4610924D46B946B0
:103A30005F46B34606E020000A21FDF761FF04005F
:103A4000202D08D00A212000FDF75AFF0135303122
:103A50007955092CEFD80B9B4F469C46A9465E46EC
:103A60005546109A63460693434605930C9B029273
:103A700004930A2303934B46019379E039260010FF
:103A80004346012B00D89FE0089AB146531E434499
:103A90009B462B0014005D46BB461F000A9E220079
:103AA0004B46013439002020B047AC42F7D13D00ED
:103AB0004E46089B2200434408930B9B290018782C
:103AC0000A9C3300A04753465F460B933BE478289B
:103AD0000CD00A239C460023102110930A338A43FA
:103AE0000E932AE7582862D120210A4310239C46CE
:103AF0000023109310330E931FE70C218A4311000B
:103B000025E71B68994600230B934B46002B00DCEE
:103B100080E10EAB9A461F2353449B4663464C46B6
:103B2000AA46B94615005F461093B34606E020004A
:103B30000A21FDF7E5FE0400202D08D00A2120000F
:103B4000FDF7DEFE013530317955092CEFD8109B99
:103B50002A009C464F4655465E46634606934346BA
:103B600005930C9B019204930A2303930B9B0293EE
:103B700016AB009329003300089A0A98FEF7B2FDAD
:103B80000E9B08900B93FFF7DEFB002A02D1002961
:103B900000D01BE6114300D079E15346002B00D042
:103BA00021E1002300249A460E930F9410E6622828
:103BB00000D05DE102239C460023109302330E9354
:103BC000BBE61B789A46DEE60B9B29001878089A1C
:103BD00033000A9CA04753460B934B460893FFF7CC
:103BE000B2FB07230B9A07329A430133994691445B
:103BF0004B460B93136852681293134392461A1E56
:103C000005D10023103299469143002866D18A06D7
:103C1000D30F119300231C000EAB9B461F235B4464
:103C20009B4643461493109BA946984663461597B6
:103C3000129D57461391B246109309E030325B460D
:103C400001341A55B8453FD005000F00202C3ED056
:103C5000002328003900109AFDF790FED2B2092AFD
:103C6000ECD9119E5723002E00D03723D218E6E757
:103C70008A06D30F0B930EAB9C461F2363444C461E
:103C8000B9461F002B00B34655460E9E9A46119129
:103C900007E0303101343955B5420FD30500202CEF
:103CA0000CD031002800FDF72BFE0929F1D90B9A21
:103CB0005723002A00D03723C918EBE74F46554653
:103CC000A1465E46119969E6109BAB42BCD9149B94
:103CD0004D469846A14656461399159F434605936F
:103CE0000C9B069104930E9B03930023A5E5109B68
:103CF000984500D8D5E08023DB000E934346089C0E
:103D00001A19109BD31A994653460B9343461093A6
:103D10000C9BBA462F004D469946B0460A9E22009B
:103D20004346013439002020B047AC42F7D14B461E
:103D30000C930B9B3D0057469A46109B464698466F
:103D4000534618780894002800D18AE0434601338E
:103D500010930E9B002B00D1A7E500230E93A1E446
:103D6000109B9845CAD8013310939EE51B6899466D
:103D7000002B03D1F03A9143002829D18A06D30FB2
:103D80000B930EAB9C461F2363445446B346AA468E
:103D90000E9E4D461191B9461F0007E030310134A7
:103DA0003955B5420FD30500202C0CD03100280026
:103DB000FDF7A6FD0929F1D90B9A5723002A00D057
:103DC0003723C918EBE755464F46A2465E46119980
:103DD000434605930C9B069104930E9B039300238B
:103DE00002935346E4E500239A4699461CE5534660
:103DF0000022002B00D035E60EE6020635D50B9BDF
:103E000000229A5E002A00DD04E6F0D053429A4672
:103E1000012201E6002B48D15346002B00D09CE63E
:103E200077E680211300C9000B4010930A420DD0A1
:103E3000023003001340109310423BD0089B994678
:103E4000002310934DE51B689A469CE502210B0068
:103E500013400E93114200D041E54346002B00D0A1
:103E60004CE75B460B93FFF76EFA0B9B1A68C9E7AA
:103E7000102113008B439C46642800D183E40A235D
:103E800062469C460023109363460E9355E50E9BB5
:103E90000F9C00225942A24101230E910F929A4693
:103EA00096E401331093FFF7FDFB5B429946012333
:103EB0000B932EE60E91D0E700B585B0039101215A
:103EC00002900093034813004A4202A9FFF710FA38
:103ED00005B000BDD528001010B5094A03001468CC
:103EE00084B0002C08D0012200910648524203A958
:103EF000A047012004B010BD00F080F90020F9E7D0
:103F0000301D0020C528001000BEFDE77047C046E8
:103F100010B5FFF7F9FFC04670B5FDF7A5FB074DDB
:103F2000074EB54209D20024013E761BB608013681
:103F300008CD01349847B442FAD170BD146700101F
:103F400018670010030010B5080011001B6898479F
:103F500010BDC046F8B5437D07000D001600002BCC
:103F60002DD0002A1ADD0B780A2B2DD00020012E2F
:103F700009D0012421006B5C01340A2B0FD0A6422A
:103F8000F8DC864203DD311A3B6828189847AD19E2
:103F9000013D2B780D3B5A4253413B75F8BD6B1EDA
:103FA0005B5C0D2BEBD0884203DA091A3B682818BA
:103FB00098470B4802213B6898472000DFE70368D9
:103FC000110028009847E9E7037D002BCED102219C
:103FD00003483B689847012ED9D00120C9E7C04665
:103FE000D8690010F8B50B680D005A1CCB180A6090
:103FF0001871802A00D0F8BD0E4B1C68002C15D01B
:104000000D4E0F1D02E02469002C0FD02368002BF9
:10401000F9D03368002B01D0A342F4D1200039003D
:104020002A68FFF797FF2469002CEFD100232B604B
:10403000E1E7C046241900202C190020F0B54646BF
:10404000D6464F46C0B582B090461C0006000D0013
:10405000FDF750F800232F4A12184B41002B02DACB
:1040600001222D4B52422D4908008A4602F0F4FAF3
:1040700081466B1C03D1300002F09CFA0500002C35
:1040800027D0274F274B1C68002C18D04346002B05
:1040900021D1254B984602E02469002C0FD02368DB
:1040A000002BF9D043461B68002B01D09C42F3D172
:1040B00020002A003100B8472469002CEFD14B467C
:1040C000002B23D1280002B0E0BCBA46B146A84676
:1040D000F0BD164FD6E7144B984602E02469002C39
:1040E000EDD02368002BF9D043461B68002B01D08C
:1040F000A342F3D12A0031002000B8476B460A22C0
:104100002000DA71D91D093AB847E7E7504602F0B6
:10411000C3FAD7E740420F00FFFFFF7F681100207E
:10412000553F0010241900202C190020453F001095
:104130000A4A1368002B05D10CE01A001B691032E3
:10414000002B07D09842F8D1002902D103691360EF
:10415000016170470029FCD01060FAE724190020A3
:1041600010B500F069FA10BDF0B5CE46474680B5EF
:1041700083B06B460600DD1D2870FCF7BBFF0023F3
:10418000194A12184B41002B02DA0122174B5242F6
:1041900017490800894602F05FFA164B80461C68F2
:1041A000002C14D0144F02E02469002C0FD0236897
:1041B000002BF9D03B68002B01D09C42F4D12000A9
:1041C00001222900FFF7C6FE2469002CEFD14346E7
:1041D000002B05D1300003B0C0BCB946B046F0BDDD
:1041E000484602F059FAF5E740420F00FFFFFF7F13
:1041F00068110020241900202C19002070B504003B
:1042000002F0D8F901230100050001222000FFF788
:1042100015FF084B1C68002C06D06368002B05D0E6
:1042200098472469002CF8D1280070BD2469002C1F
:10423000F3D1F9E724190020F0B5CE46474680B502
:10424000A3B004000E00FCF755FF0023264A121805
:104250004B41002B02DA0122244B5242244802F047
:10426000FBF900232200019380463300214801A975
:10427000FFF722FE204F019B81463C68002B19D09E
:10428000002C2FD01D4E02E02469002C0FD0236893
:10429000002BF9D03368002B01D0A342F4D12000C9
:1042A000019A02A9FFF756FE2469002CEFD10023E2
:1042B0003C680193002C06D06368002B0CD0984713
:1042C0002469002CF8D14346002B07D1484623B07F
:1042D000C0BCB946B046F0BD2469EBE7044802F023
:1042E000DBF9F3E70194EEE740420F00FFFFFF7FA9
:1042F00068110020E53F0010241900202C1900202F
:104300000FB400B583B004A901C90191FFF794FF70
:1043100003B008BC04B01847024B1860024B196088
:104320007047C046C4180020C818002010B5024BC2
:104330001878FCF757F910BD871D0020154B70B594
:104340001A68002A22D0EFF3108172B61068002894
:10435000FCD0BFF35F8F00200F4A596010701B68BC
:10436000BFF35F8F186081F31088002400250B4E87
:104370003078FCF72BF9002804D10024002529000F
:10438000200070BD3078FCF72DF9F8E7FA240025FD
:10439000A400ECE73C1D0020881D0020871D0020A4
:1043A00070B5050000200E0001F076FB002835D026
:1043B000002001F089FB002830D0FCF79BFE002391
:1043C000184A12184B41002B16DB174C200002F044
:1043D00043F9002822D0002001F05EFB00280FD115
:1043E000012000210325404200F092FD6D42200093
:1043F00002F052F9280070BD01220C4B5242E4E752
:10440000002001F061FB0028EAD0290032000020E2
:1044100001F064FB051EEAD1033DE8E703256D4288
:10442000E8E7C04640420F00641D0020FFFFFF7F09
:1044300010B5FCF75FFE00230D4A12184B41002B0C
:1044400002DA01220B4B52420B4802F005F9002818
:104450000CD001200021404200F05AFD002001F064
:1044600081FB0028F5D1044802F016F910BDC046C2
:1044700040420F00FFFFFF7F641D0020F8B5CE46CD
:10448000474680B505000C00FCF734FE0023344A93
:1044900012184B41002B02DA0122324B52423249B0
:1044A0000800884602F0D8F8002803D1C0BCB946FD
:1044B000B046F8BD002001F0EFFA002848D0002CEB
:1044C00042DD2A4B0026994613E0A919002001F08D
:1044D00085FB070001200021404200F019FD00206B
:1044E00001F040FBFCF706FE204BF61903C3B44273
:1044F0002ADD002001F090FBA71B0200B84200DD7E
:104500003A00002AE1D101200021404200F000FDE4
:10451000002001F027FB002001F0BEFA002813D094
:10452000002001F079FB0028E1D1FCF7E3FD4B46C8
:104530000F000CCB002184460D4812184B419F42BE
:1045400002D8D4D19445D2D9404602F0A5F8ADE7BF
:1045500000200021054B03C3404602F09DF8A5E76B
:1045600040420F00FFFFFF7F641D0020B8130020B2
:1045700020A1070030B5002185B0284802F064F87A
:1045800000281BD1264B1A68002A15D0EFF31081A2
:1045900072B610680028FCD0BFF35F8F0124214A57
:1045A000596010781B681470BFF35F8F00221A6087
:1045B00081F31088002817D005B030BD01200021FC
:1045C000404200F0A5FC002001F07EFA05001348EF
:1045D00002F062F8002DEFD0134B1B68002BEBD0DC
:1045E000124A10689847E7E7FCF7FCFB0400FCF769
:1045F00081FDFA220023920012184B41002B02DAAF
:1046000001220B4B524201210291002101910949E3
:1046100020000091FCF7EAFBCEE7C046641D0020B5
:104620003C1D0020881D0020C4180020C818002050
:10463000FFFFFF7F3D430010D02330B51B0685B040
:104640001D68FCF7CFFBFCF7CDFC0024A84202D08C
:10465000200005B030BD294B002100201B7801F05F
:1046600097FC27480368002B44D00120FCF73EF953
:10467000FF23244C244920701840FBF7CBFF2078FF
:104680000121FBF791FF0520FBF7B4FF041E24D1A5
:10469000082200211D48FDF7C3FFFCF7A3FB05001E
:1046A000FCF728FDFA220023920012184B41002B40
:1046B00002DA0122164B524201210291002101919E
:1046C000144928000091FCF791FB0028C0DB012170
:1046D0001148FFF72DFD0124BAE70120FBF722FF67
:1046E00001000A48FCF768F9002205200B49FBF796
:1046F000BBFFECE7FCF744F9B7E7C0463C6C0010A1
:10470000641D0020871D0020754500103C1D002001
:10471000FFFFFF7F3D430010301100202D430010AC
:1047200000487047546A001000487047006A001043
:1047300010B5040016480378002B20D0002C06D1B9
:10474000144B15484380063BFF3B038010BD052CEE
:104750001CD8124BA400E4580F480123811C013CD3
:1047600004E001330A800231142B0CD0E25C002AF1
:10477000F7D1C022DBB25B0092001343E5E71121C1
:1047800000F016F8DAE7CA239B00DEE70020DDE739
:10479000701D002009040000FC180020E8690010CA
:1047A00010B5024800F0F4F810BDC046541D0020BA
:1047B00030B5012900D1BBE0744B01391A781211D0
:1047C00014003034092A00DDB5E00470012900D15D
:1047D000DAE00F221C78224014003034092A00D974
:1047E000ACE04470022900D1CEE05A789446121110
:1047F00014003034092A00DDA3E08470032900D1BD
:10480000C2E064460F22224014003034092A00D945
:104810009AE0C470042900D1B6E09A789446121147
:1048200014003034092A00DD91E00471052900D11B
:10483000AAE064460F22224014003034092A00D92D
:1048400088E04471062900D19EE03025AC46DC7832
:1048500022119444092A00DD7FE062468271072913
:1048600000D191E00F22224014003034092A00D9EF
:1048700077E0C471082900D186E03025AC461C7968
:1048800022119444092A00DD6EE062460272092971
:1048900000D179E00F22224014003034092A67D871
:1048A00044720A2900D16FE03025AC465C792211B0
:1048B0009444092A5FDC624682720B2964D00F227D
:1048C000224014003034092A59D8C4720C295BD014
:1048D0003025AC469C7922119444092A02DD073523
:1048E000AC469444624602730D294DD00F222240FB
:1048F00014003034092A01D93732140044730E29C8
:1049000042D0DA7913111C003034092B01DD373322
:104910001C0084730F2937D00F2313401A0037323D
:10492000092B01D830331A00C27310292CD0103053
:104930000023037030BD3732140046E737321400CD
:104940004FE73732140058E73732140061E7373247
:1049500014006AE73732140073E70735AC46944415
:104960007BE73732140084E70735AC4694448CE784
:104970003732140094E70735AC4694449BE737324E
:104980001400C4720C29A3D14018D1E7541D002093
:1049900010B588B004000D2200216846FDF740FEE6
:1049A0000D22002104A8FDF73BFE6A464B23684612
:1049B000137004A900230D2201F086FE15210822A0
:1049C00020006944FDF732FE08B010BD7047C046B4
:1049D0000022014B1A707047861D00204B79FF2B77
:1049E00005D18B79002B02D1CB79012B01D000208E
:1049F0007047082AFBD9024B8A7809201A70F7E71A
:104A0000861D00200120704710B5012901D001202A
:104A100010BD14495379107909781B020343994258
:104A200001D00020F4E75378012B07D0022BF8D1F6
:104A3000642200210020FCF763FDE8E7D178937839
:104A40000902194380230A005B001A40194206D06C
:104A50000A06D20F480A03231940FCF7D7FD0120AC
:104A60004042F8E7861D002000487047106B001098
:104A70009446012310B501290AD15378012B06D1A0
:104A800013005B7912791B021343072B02D000231A
:104A9000180010BD9F336146024A00F0E7FE030094
:104AA000F6E7C046686A00100123037000487047AB
:104AB000346B00104B780A781B0213438A7810B5C8
:104AC00012041A43CB781B0613439622D20093425A
:104AD00000D010BD0022012011004042FCF796FDDD
:104AE000F8B500F03FF90C23194DFF22AB67052004
:104AF0001849FBF7B9FD184C402200212000FDF7B2
:104B00008FFD4027002301262121144A6670278348
:104B1000A260136063545F31618445396354104A65
:104B200010496360E2602787A1620B606362E26202
:104B300001F082FD80239B052E64EB6490230A4ADA
:104B40000120EA508022094B5202DA64F8BDC046C7
:104B500000001150C90400203019002084001050BA
:104B6000000110508000105010D0010000201150A2
:104B700010B501210520FBF717FD10BD10B500226F
:104B80000021024800F00EF910BDC0465019002067
:104B9000044B1970002904D080219023024A890215
:104BA000D1507047821D0020002011500B785B0609
:104BB00000D070474B78052BFBD18A78014B1A60E7
:104BC000F7E7C04600001150F8B5CE464746CA7810
:104BD00080B59207930F1A00012B5CD04B790C79AA
:104BE0001B0223435B055E0D7F2388782F4D034016
:104BF000C409590089460919490169188870C043D8
:104C0000C0B2C009487000200E83C870CA76370051
:104C1000D900012C2FD0264E89199E01B446AC44F0
:104C20006646B1600860002B2FD0D900214BC9180F
:104C300071603B003F339B09022A33D09B011E4920
:104C400008688C464946091949016D186146C31820
:104C50000B601A49E8608B4226D8194B92064340F4
:104C60001A4380231B0613436A6813600120C0BCEB
:104C7000B946B046F8BD134E89199E01B446AC44FE
:104C80006646B1620860002B07D164012C1963608D
:104C90000D4BE360EAE70020E9E7D900084BC918AB
:104CA0007162C6E7DB01CAE7FCF7D8FC30190020C7
:104CB0008400105004001050381D0020FF0F1050C9
:104CC00000001050800010500001105010B501F08D
:104CD000B3FC10BD7F2010B508404000C909401842
:104CE0001100044A400180181A0000F05BF801200E
:104CF00010BDC046301900207F23180000B50840C1
:104D000083B00B4204D14B424B41084A01339366B6
:104D10008022C9094000064B401840010021C018FC
:104D2000120101F0B1FC03B000BDC04600201150DB
:104D3000301900207F22130010B50B400A4200D129
:104D400010BDC9095B005B1804485B01C018002353
:104D500000220349C37001F097FCF1E730190020ED
:104D6000FFF7FFFF80220A4B520410B51A60094B6F
:104D700009491A6010000B689843FBD1802200217A
:104D800052010648FDF74CFC0922054B5A6710BD3D
:104D900000E0004000F0004008C00040000010505B
:104DA00000001150002310B5C38201338282837644
:104DB0000161040001F080FC002804D080219023D0
:104DC000074A8902D150200001F056FC002802D089
:104DD0000123237710BD200001F066FCFAE7C046EE
:104DE000002011507047C0467047C04600207047F1
:104DF000002070477047C0467047C0467047C046A5
:104E00007047C046024B5878431E9841C0B2704765
:104E1000A8160020024B18784007C00F7047C04604
:104E2000A8160020F0B5D6464F464646C0B52D4BD5
:104E3000814698461B788A460124FF2B3ED10029E3
:104E40003BD0002154222848FDF7EAFB0022274CE2
:104E5000274B20001A70FBF793FD264B1C60264C55
:104E60002000143CFBF79AFD200001F05FFB234B70
:104E7000234D1C60234B002B04D02800FFF714FEA9
:104E8000214B186000242B78204F1F4E0DE0336813
:104E900062019B18002B10D05B68002B0DD0984747
:104EA00001342B78E4B2A3420ED3A342EFD8E31A25
:104EB0005B01DB195B68002BF1D100242000E0BC12
:104EC000BA46B146A846F0BD42464B465146484612
:104ED0001370FFF705FE041EF0D04846FFF748FEAA
:104EE000ECE7C04664110020A8160020A0160020A0
:104EF000831D0020FC1600205C11002000170020FC
:104F0000811D0020A94A0010C0150020FC6B001074
:104F1000F0B5DE4657464E464546E0B5C14B91B02A
:104F200003931B78FF2B00D137E1BF4BBF4E984650
:104F3000BF4B0DAC0293BF4B019335686A69EFF329
:104F4000108172B61368002BFCD0BFF35F8FA9618C
:104F50002800210001F03CF96A69AB69BFF35F8F5B
:104F60000021116083F31088002800D115E16378D7
:104F7000082BE2D842469B00D3589F466368002B1B
:104F8000DBD0A0689847D8E77F222179A84D0A4056
:104F90005300C809EB181B18180001273030057999
:104FA000BD43057105790337BD430571002A00D162
:104FB000FAE0A14A1B7D1278934200D3EBE09F4AAE
:104FC0005B011568ED18002D00D1E6E0A368627959
:104FD0002078AD69A847B0E7994B1A78002A00D12C
:104FE000DBE01A78013A1A701B78002BA5D1012258
:104FF0008F4D01212B78042013432B703423EA5C5E
:105000008A43EA54EA5C8243EA540133EA5C8A4305
:10501000EA54EA5C8243EA54237800209B4600F07D
:105020007FFC602223791A40602A00D1E4E0402A04
:1050300000D1EAE0DB06DB0E012B00D108E1022BF8
:1050400000D1BEE0002B00D0D6E0202A00D103E240
:105050006379092B00D9CFE07A4A9B00D3589F4649
:10506000734D2B78DB0700D467E7FFF7C9FE64E7D1
:10507000029BDB78DB0700D45FE76068FFF7B4FED4
:105080005BE76B4D2B78DB0700D456E728780007E9
:10509000C00FFFF7B3FE50E7664A674F2378934689
:1050A000664A994692463A003B7800254F46B146FB
:1050B00016000EE053461B686A019B18002B00D1B6
:1050C0007AE0DB683800984701353378EDB2AB42BF
:1050D0000CD39D42EED3EB1A5B015B44DB683800D6
:1050E000984701353378EDB2AB42F2D2504D54229D
:1050F00000212800FDF794FA1022FF21281DFDF75A
:105100008FFA28002022FF2114304E46FDF788FA3E
:1051100000F0FCFB2379AB700FE72378464F9946EC
:10512000464AB3463B783E00002592464F460DE086
:1051300053461B686A019B18002B3BD0DB68380084
:10514000984701353378EDB2AB420DD39D42EFD392
:10515000019AEB1A5B01D318DB68380098470135D8
:105160003378EDB2AB42F1D2029D542200212800E7
:10517000FDF756FA1022FF213348FDF751FA2800B7
:105180002022FF2114305E46FDF74AFA00F0BEFBF4
:10519000FFF732FED1E6934211D011B0F0BCBB460E
:1051A000B246A946A046F0BDA3686279207800F017
:1051B000CBFBC2E65E46E9E74E461D4DA8E71D4D16
:1051C00004E77023217A0B4216D17F27CB099A4638
:1051D0000F407F001848EB1953441B7D0078834231
:1051E0006BD216485B01006881469944002A00D1C1
:1051F00054E14B46002B68D120780021FFF77CFD5D
:1052000080212078FFF778FD97E6104800F088FBB2
:10521000012158460EAAFFF72BFC002800D08CE68F
:10522000EAE7C04664110020546B0010001700200C
:10523000A8160020FC6B0010811D0020C015002066
:10524000831D0020786B0010AC160020714A0010FE
:10525000237A22890F2BCFD8FF231340CE4AEB1895
:105260001B791278934221D3C6D1CC4D686900F0E6
:1052700057FB012158466B690EAA9847002800D0B9
:105280005BE66022150023791D401A42B4D1637990
:105290000A3B012BB0D800F043FB63790A2B00D105
:1052A00084E158460EA900F0CBFA46E6BC4A5B0101
:1052B0001568ED18002DD9D19EE7834200D0E8E0B3
:1052C000B64B9946002A00D1E8E04B46586900F0F9
:1052D00027FB4B46012158465B690EAA98479CE77D
:1052E000A37999466B789945DBD06B78002B00D079
:1052F0006DE14B466B70002B00D165E148460138EB
:10530000C0B2FFF711FA002800D1B3E14378079348
:10531000022B00D0AEE10122C179A9468B114911BF
:1053200013400A40302112015B0113432A788A435B
:1053300013432B7009239A4682445546B246C378DC
:1053400082781B021343C3180593934B0493934B2A
:105350000893934B0993934B0A93059BAB4200D858
:105360008BE16B7801220B2B03D12B78EA78ED18B7
:105370006B78042B00D07BE1059B00265B1B9BB266
:105380000693049B0B921F7819E0099A7301176822
:10539000FF18002F00D16BE1290058463B69069A9F
:1053A00098478446082803D9069A824200D34CE1E4
:1053B000049B01361F78F6B2B74200D258E1BE42D4
:1053C000E3D3089BF71B7F01DF19E5E76B780CAA95
:1053D00002321370584601230EA900F047FAACE5DB
:1053E000E088030AC0B20F2B00D905E76E499A0086
:1053F0008A5897460EA800F099FA5846A179FFF707
:10540000BDFB02222B7813432B7096E5E388012B1A
:1054100000D0F1E608222B7813432B7041E7E38894
:10542000012B00D0E8E608222B78584693430EA9BA
:105430002B7000F005FA80E5022029780CAB9A1C4D
:105440008B068908DB0F01400B431380584602236B
:105450000EA900F00BFA70E5237A22890F2B00D9F0
:10546000CAE6FF2313404C4AEB181B79127893428B
:1054700027D24B4A5B011568ED18002D00D1BBE621
:10548000686900F04DFA012158466B690EAA9847E9
:10549000C3E6002A00D0AFE60023994662790220D5
:1054A000130004928343012B10D0002A00D0A3E6FE
:1054B000EB19534430331B790CAA9B07DB0F0232E4
:1054C000C3E7934200D097E6344DD9E7E388002B39
:1054D00011D1039B1878049B012B22D0FFF70CFC01
:1054E0000221EB19534430331A790A4301211A710E
:1054F0001A790A431A714B46002B00D11DE55869F1
:1055000000F00EFA4B4601215B690EAA58469847F7
:10551000002000F005FA3523EB5CDB0700D50CE535
:10552000BFE6FFF707FC0221EB19534430331A7929
:105530008A431A711A7904998A431A71DBE7FFF7D3
:1055400055FC021E00D157E6584613780EA900F00C
:105550008DF962E62189FFF7EBF8021EF4D14BE6E4
:10556000022B00D1A1E0FFF743FC021E00D143E66D
:10557000D37891781B020B4358460EA900F076F9B8
:105580004BE6FFF7CDF8021E00D135E61223584650
:105590000EA900F06BF940E6811D0020FC6B0010A5
:1055A000C0150020BC160020A06B00100CAB9A1C8C
:1055B000584601230EA9157000F058F9BDE4FFF715
:1055C00053FA021ED4D117E6FFF716FC69E6002154
:1055D0005846FFF7DDFA5846FFF778FB002292465F
:1055E000364AAB780592364A364F06922A00049323
:1055F00055463B7892460DE0069B6A011B689B1856
:10560000002B58D0DB685846984701353B78EDB2FF
:10561000AB4206D39D42EFD3059AEB1A5B01D31838
:10562000F0E75546542200212800FCF7F9FF10222C
:10563000FF21281DFCF7F4FF28002022FF21143051
:10564000FCF7EEFF049BAB7053E60B9A012A26D0C1
:10565000002A16D00023A87804E00133DBB20E71D3
:1056600093420ED2C118C9B249440F79FF2FF4D02A
:1056700056464D4600236B70BEE55646FFF7BAFB13
:105680000FE66746330029003A000A9800F024FD2F
:10569000049BED191B78B34200D35EE6E8E70A4BA2
:1056A00039699942D6D1079AD4E7FFF73DF8021E2F
:1056B00000D05DE7A0E55546C4E7C046FC6B00108E
:1056C000C0150020811D0020095D0010F0B54F4677
:1056D0004646D646C0B50C0016001F0082B0002A10
:1056E0003CD0702398461E4B002599461D4B9A4688
:1056F0006378052B18D1E3789B079B0FBB4213D12E
:105700004246A3781A420FD14B461B7820000193E2
:105710005346997800F0A6FC002807D102B0E0BCFF
:10572000BA46B146A846F0BD0020F7E7210001982F
:10573000FFF74AFA0028F1D0A378DA09012A07D046
:105740000A9A01351370B542E8DA2378E418CFE7F6
:105750000B9A01351370B542F7DBDFE70120DDE777
:1057600064110020A8160020702270B58B780C0000
:1057700000201A4200D070BD064B20001D78064B59
:10578000997800F06FFC0028F5D021002800FFF781
:105790001BFAF0E764110020A81600207F20074BB9
:1057A00010B51A680840CB0934334000C018044BC8
:1057B0001100C01800F012FC10BDC046FC160020FD
:1057C000A81600207F20074B10B51A680840CB09A7
:1057D00034334000C018044B1100C01800F026FC00
:1057E00010BDC046FC160020A816002070B57F240E
:1057F000C80984460C4010486400041964443034DD
:10580000207905000020ED0700D570BD0B4801256B
:10581000007884462079284320716046FFF75AFAC1
:105820000028F2D101222379934323712379033293
:1058300093432371E9E7C046A816002064110020B5
:1058400070B5094C0600082220000D00FCF7EEFEA2
:1058500000238021E360A3602B783000994300226D
:105860000023FFF7C3FF70BD88160020F0B5C646C1
:10587000244C170080460822200000B50D001E00B1
:10588000FCF7D4FE0023A760E381EB79AA791B0221
:1058900013431A1CB34200D9321C96B2A281002BCA
:1058A0000CD0002E15D0002F2AD0402E1AD82378E5
:1058B00096B27F2B1BD80021134A0EE080212B7853
:1058C0000022994340460023FFF790FF80BCB84672
:1058D000F0BD7F2300222178994333004046FFF733
:1058E00085FFF3E74022237896B27F2BE3D9064C5D
:1058F000320039002000FCF799FE80212200ECE7FD
:105900000020E3E7881600204816002010B5142276
:1059100000210248FCF784FE10BDC0468816002016
:10592000014B18617047C0468816002010B5054C21
:10593000010008222000FCF779FE0023A360E36049
:1059400010BDC0468816002070B5364C1D00237867
:105950000600DA09C9098A420FD0002D01D00020C3
:1059600070BD2100FFF722F92369002B03D022002C
:105970000321300098470120F2E77F2B06D8A0686A
:105980000028ECD02A002849FCF750FEE289A168E3
:105990005219E38892B24919E281A160934214D06E
:1059A0003F2D12D9A389981A051C80B2402828D807
:1059B0002078ADB27F2826D800219A4230D01A4AEA
:1059C0002B003000FFF712FFCAE72369002B05D038
:1059D0002200022130009847002808D08021237837
:1059E0000022994330000023FFF700FFB8E70021B1
:1059F0003000FFF781F930008021FFF77DF90120A9
:105A0000AEE74025D4E79A4207D0074C2A00200091
:105A1000FCF70CFE80212200D2E780210022CFE794
:105A20000022CDE7881600204816002070B504003B
:105A3000FFF7E8F9002800D170BDFFF7EBF9002867
:105A4000FAD1C8236343124A2500D418E17800290B
:105A5000F2D010339E18300000F0A8FB3F28EBD99D
:105A60000020E178FFF79AFE0028E5D0300000F032
:105A70009DFBE1783F2807D9064BEA01D2180020A8
:105A80004023FFF7B3FED7E70020FFF79BFED3E7E5
:105A900070110020C415002010B50400FFF7B2F902
:105AA000002800D110BDFFF7B5F903000020002B3E
:105AB000F8D1C8226243034B01309B181B79184070
:105AC000F0E7C04670110020C82310B543430248D8
:105AD000181800F051FB10BD80110020F8B5C82344
